:1000000020C032C031C030C02FC02EC02DC02CC087
:100010002BC02AC029C028C027C026C025C024C0A4
:1000200023C022C021C09BC38CC37CC3CEC26CC37F
:100030005DC34DC34AC33AC32AC31AC3C6C2C5C2AD
:100040000AC311241FBECFE5D4E0DEBFCDBF11E04F
:10005000A0E6B0E0E2E4F8E002C005900D92A03026
:10006000B107D9F76DD0EBC3CBCF882349F090E02F
:1000700020E030E0F9013197F1F79F5F9817D0F356
:100080000895A89A0895A89808950F931F93B99A70
:10009000A09A00E010E0C8010197F1F780E024D1B8
:1000A00081E060E0F6D0CCD180E690E04CD1C80190
:1000B0000197F1F7C8010197F1F7C8010197F1F72E
:1000C000C8010197F1F7C8010197F1F781E060E0FD
:1000D000E0D080E790E037D1C8010197F1F7C8017F
:1000E0000197F1F7C8010197F1F7C8010197F1F7FE
:1000F000C8010197F1F781E060E0CBD08CE790E098
:1001000022D1C8010197F1F7C8010197F1F7C801A1
:100110000197F1F7C8010197F1F7C8010197F1F7CD
:1001200081E060E0B6D03DD38B59944619F01F9121
:100130000F91089583EB95E147D31F910F91089597
:10014000CF92DF92EF92FF920F931F93CF93DF93A3
:100150009CDFEE24FF248AE0C82ED12C89E890E0B1
:10016000D8D1EC011ED3C817D907C9F0CD2B09F49B
:1001700039C081E060E08DD08AEE90E0E4D0A898AC
:1001800020E0C7010197F1F72F5F2F30D1F789E801
:1001900090E0BFD1EC0105D3C817D90739F781E04A
:1001A00060E077D088E990E0CED0A89A20E0C7013F
:1001B0000197F1F72F5F2F30D1F781E060E069D030
:1001C00087EA90E0C0D003C0C6010197F1F766D17D
:1001D0008F3FD1F3A898C7010197F1F7C7010197A5
:1001E000F1F7BCCF81E060E054D085EB90E091D195
:1001F0008C01D7D20817190771F081E060E049D06F
:1002000089ED90E0A0D020E0C7010197F1F72F5FC2
:100210002F30D1F7A3CF82EC90E07BD1D5D281E013
:1002200060E037D08FEC90E08ED020E0C7010197DE
:10023000F1F72F5F2F30D1F791CF87B3837C87BB46
:10024000C69AC79881E08A95F1F721E0C09A822F7B
:100250008A95F1F786B3869586958295807F922F51
:100260009A95F1F7C098922F9A95F1F7C09A922F2C
:100270009A95F1F796B3922F9A95F1F7C098922F2D
:100280009A95F1F787FDE2CFC69887B38C6387BB59
:100290000895382F662331F1C79A21E0822F8A957D
:1002A000F1F7C09A98B3832F82958F70880F880FCB
:1002B000937C892B88BB822F8A95F1F7C098822F77
:1002C0008A95F1F7C09A88B33F70330F330F837C60
:1002D000832B88BB822F8A95F1F7C0982A95F1F776
:1002E000ACDF0895C798D9CF0F931F93082F8CE4E4
:1002F0009DE10197F1F787B38C6387BBB89ABF9AEA
:10030000BE9A88B3837C88BBC098C698C79811E012
:10031000812F8A95F1F7C09AC39A812F8A95F1F7B8
:10032000C098812F8A95F1F788DF802F8C6060E07C
:10033000B0DF88E260E0ADDF81E88FBD1EBD8D9A41
:100340001F910F910895CF93DF93EC01888188234B
:1003500031F061E09EDF219688818823D1F7DF911B
:10036000CF910895EF92FF920F931F93DF93CF9356
:1003700000D000D00F92CDB7DEB79C018B017E017B
:100380000894E11CF11C85E0F70111928A95E9F7C8
:100390002115310581F0FE013596C9016AE070E052
:1003A0003BD28083C9016AE070E036D29B0131976D
:1003B0006115710591F7FFEF0F3F1F0741F125E030
:1003C00030E0201B310B25303105ACF4F701E20F92
:1003D000F31F808189010F5F1F4FE00EF11E05C0E2
:1003E000F70181917F010F5F1F4F805D61E051DF59
:1003F00005301105ACF30F900F900F900F900F90F8
:10040000CF91DF911F910F91FF90EF900895898117
:10041000882359F420E030E02F5F3F4FF701E20FCF
:10042000F31F80818823C1F3CECF20E030E0D2CF0C
:10043000883228F461118064806860E02ADF0895C2
:100440008AB59BB5892B91F420E030E04CED55E066
:100450003BBD2ABDCA010197F1F72F5F3F4F2A3FED
:100460003105B1F78FEF90E09BBD8ABD08958AB545
:100470009BB58F3F910509F008952FEF30E04CEDCB
:1004800055E03BBD2ABDCA010197F1F7215030402C
:1004900025303105B1F71BBC1ABC08951F9382B3F8
:1004A0008F6082BB60E070E0A0E8B0E0E8E0F0E0E0
:1004B000162F81B311BA21B3CD01062E02C0959536
:1004C00087950A94E2F7282B21BB40E050E080B3E7
:1004D0009F01042E02C0359527950A94E2F790E01B
:1004E00028233923232B69F04F5F5F4F4430510598
:1004F00071F76F5F7F4F64307105D1F68FEF1F91F9
:100500000895440F551F440F551F812F840F1F91CD
:1005100008952F923F924F925F926F927F928F92A7
:100520009F92AF92BF92CF92DF92EF92FF920F9382
:100530001F93DF93CF9300D000D00F92CDB7DEB7DB
:100540005C01CC24CA947E010894E11CF11C56E0A5
:10055000552E45E0442E30E4632E36E0732E29E01C
:10056000322E98E0292E81E060E093DE80E060E0AA
:100570005FDFC501E8DE86E061E05ADFD701EAEF20
:10058000F0E085E001900D928150E1F7992486E03A
:10059000D82E00E41FE10115110521F00150104093
:1005A00009F4EEC07BDF882EC816A9F34FEF84173D
:1005B00009F4E3C045DF5AE0D516A1F0882D90E09C
:1005C000FC013197EE30F10550F020E0C3010197B6
:1005D000F1F7C82C222339F600E41FE1DFCFED5EEE
:1005E000FF4F09945BDF8430E9F7898190E028EEC2
:1005F00033E0A901849F9001859F300D949F300DB9
:1006000011248A8144E6849FC0011124280F391FD8
:100610008C81280F311D8B814AE0849FC0011124F9
:10062000280F391FC9010F900F900F900F900F9056
:10063000CF91DF911F910F91FF90EF90DF90CF90BE
:10064000BF90AF909F908F907F906F905F904F90F2
:100650003F902F9008958D2D61E0EADE88EF90E0C5
:1006600072DEF701E90DF11D10829394D394ADCFA2
:100670008D2D61E0DDDE88EF90E065DEF701E90DAC
:10068000F11D81E080839394D39420E09FCF8D2D42
:1006900061E0CEDE88EF90E056DEF701E90DF11D56
:1006A00052E050839394D39420E090CF8D2D61E05D
:1006B000BFDE88EF90E047DEF701E90DF11D83E032
:1006C00080839394D39420E081CF21E07FCF8D2D40
:1006D00061E0AEDE88EF90E036DEF701E90DF11D56
:1006E00044E040839394D39420E070CF8D2D61E05B
:1006F0009FDE88EF90E027DEF701E90DF11D4082D3
:100700009394D39420E062CF8D2D61E091DE88EF49
:1007100090E019DEF701E90DF11D50829394D39416
:1007200020E054CF8D2D61E083DE88EF90E00BDE7A
:10073000F701E90DF11D57E050839394D39420E025
:1007400045CF8D2D61E074DE88EF90E0FCDDF70190
:10075000E90DF11D20829394D39420E037CF8D2DA5
:1007600061E066DE88EF90E0EEDDF701E90DF11D56
:1007700030829394D39420E029CFCC24CA940BCF19
:1007800076DE10CFE199FECF9FBB8EBBE09A8DB392
:100790000895E199FECF9FBB8EBB6DBBE29AE19AB3
:1007A00008950F931F9381E090E0ECDF082F80E025
:1007B00090E0E8DF94E6099F80011124080F111DE5
:1007C000C8011F910F9108950F931F938C0164E648
:1007D00070E00ED0682F80E090E0DBDFC80164E6B7
:1007E00070E006D081E090E0D4DF1F910F91089572
:1007F000AA1BBB1B51E107C0AA1FBB1FA617B70747
:1008000010F0A61BB70B881F991F5A95A9F7809562
:100810009095BC01CD01089597FB092E07260AD0BB
:1008200077FD04D0E5DF06D000201AF470956195BD
:100830007F4F0895F6F7909581959F4F0895F8940E
:02084000FFCFE8
:10084200534D41525420444F4F52204C4F434B0082
:1008520044455349474E454420425900534147417C
:1008620052204B414E53414C00456E7465722050EC
:10087200617373776F7264004163636573732047BA
:1008820072616E74656400507265737320416E7993
:10089200204B6579004F6C642050617373776F72DF
:1008A20064004E65772050617373776F72640053F2
:1008B20075636365737320210057726F6E672050F2
:1008C200617373776F726420210041636365737390
:1008D2002044656E696564002A00232323230000F7
:00000001FF
