:100000000C9446000C945D000C945D000C945D0013
:100010000C945D000C945D000C945D000C945D00EC
:100020000C945D000C945D000C945D000C945D00DC
:100030000C945D000C945D000C945D000C945D00CC
:100040000C945D000C945D000C945D000C945D00BC
:100050000C945D000C945D000C945D000C945D00AC
:100060000C945D000C945D000C945D000C945D009C
:100070000C945D000C945D000C945D000C945D008C
:100080000C945D000C945D000C945D0011241FBE67
:10009000CFEFD0E1DEBFCDBF11E0A0E0B1E0E8EBF3
:1000A000F1E000E00BBF02C007900D92A030B10755
:1000B000D9F70E945F000C94DA000C940000AF9214
:1000C000BF92CF92DF92EF92FF920F931F938FEF29
:1000D00084BB83E38ABB80E88BBB20E030E064ED27
:1000E00070E3AA24A39448EA51E6A2E0BA2EF0E213
:1000F000CF2EE0E1DE2E90E8E92E80EFF82E04E02E
:1001000014E2B2E3A0E6F8E4E2EF89B3843051F4FC
:100110002F5F3F4FCB010197F1F7ABBACA010197AF
:10012000F1F71BBA89B3883029F4BBBACA01019729
:10013000F1F71BBA89B3803411F4DBBA09C089B373
:10014000803851F421503040CB010197F1F7CBBA00
:10015000CA010197F1F71BBA2130310511F4E5BB53
:100160000FC02230310511F4F5BB0FC0233031052B
:1001700011F4A5BB0FC02430310511F4B5BB0FC07D
:100180002530310511F415BB0FC02630310511F4AF
:1001900005BBBBCF2730310511F4F5BAB6CF2830F7
:1001A000310511F415BAB1CF2930310509F0ADCFC1
:0801B000E5BAABCFF894FFCFD4
:00000001FF
