:100000000C9459000C946E000C946E000C946E00CD
:100010000C946E000C946E000C946E000C946E00A8
:100020000C946E000C946E000C946E000C946E0098
:100030000C946E000C946E000C946E000C946E0088
:100040000C946E000C946E000C946E000C946E0078
:100050000C946E00443D00433D00423D00413D0094
:10006000594F552043484F5345204400594F552080
:1000700043484F5345204300594F552043484F5361
:1000800045204200594F552043484F5345204100D9
:1000900057454C434F4D4500564F54494E47204D10
:1000A000414348494E4500454C454354524F4E4903
:1000B000430011241FBECFE5D4E0DEBFCDBF10E06A
:1000C000A0E6B0E0EAEFF5E002C005900D92A03A9C
:1000D000B107D9F70E9470000C94FB020C94000049
:1000E0009F92AF92BF92CF92DF92EF92FF920F93C7
:1000F0001F93CF93DF938FE08ABB11BA80E00E94F9
:10010000CB0184EF91E020E931E0F9013197F1F77B
:100110000197D9F781E060E00E949D0182E060E0F4
:100120000E94C20287EA90E00E94320280E061E011
:100130000E94C20288E990E00E94320284EF91E0BE
:1001400020E931E0F9013197F1F70197D9F781E022
:1001500060E00E949D01C0E9D1E082E0982E80B36A
:10016000803109F06CC081E060E00E949D0184E074
:1001700060E00E94C20280E990E00E94320281E0C9
:100180008BBB88EC90E0FE013197F1F70197D9F72E
:1001900080B3813199F49BBA80E060E00E94C20292
:1001A00084E890E00E94320288E893E1FE013197F2
:1001B000F1F70197D9F70894A11CB11C80B38231E3
:1001C00099F49BBA80E060E00E94C20288E790E068
:1001D0000E94320288EC90E0FE013197F1F701971E
:1001E000D9F70894C11CD11C80B3843199F49BBA0F
:1001F00080E060E00E94C2028CE690E00E94320241
:1002000088EC90E0FE013197F1F70197D9F7089457
:10021000E11CF11C80B3883191F49BBA80E060E06E
:100220000E94C20280E690E00E94320288EC90E0D8
:10023000FE013197F1F70197D9F70F5F1F4F80B398
:10024000803209F08CCF81E060E00E949D0180E067
:1002500060E00E94C2028DE590E00E94320282E0DE
:1002600060E00E94C202C50163E00E94530289E07F
:1002700060E00E94C2028AE590E00E9432028BE0B8
:1002800060E00E94C202C60163E00E94530280E067
:1002900061E00E94C20287E590E00E94320282E0A3
:1002A00061E00E94C202C70163E00E94530289E03C
:1002B00061E00E94C20284E590E00E9432028BE07D
:1002C00061E00E94C202C80163E00E94530288EC10
:1002D00090E0FE013197F1F70197D9F740CF87B34E
:1002E000877887BBC19AC09882E08A95F1F722E0AF
:1002F00035E0C29A822F8A95F1F786B38695869566
:1003000086958295807F922F9A95F1F7C298932FC8
:100310009A95F1F7C29A922F9A95F1F796B3922F88
:100320009A95F1F7C298932F9A95F1F787FDE1CF4F
:10033000C19887B3886787BB0895282F662311F477
:10034000C09801C0C09A82E08A95F1F7C29A98B32A
:10035000822F82958F70880F880F880F9778892B4E
:1003600088BB95E0892F8A95F1F7C298892F8A95E5
:10037000F1F7C29A88B32F70220F220F220F8778CD
:10038000822B88BB892F8A95F1F7C2989A95F1F74D
:100390000E946F0108951F93CF93DF93182F88EE6B
:1003A00093E020E931E0F9013197F1F70197D9F7AE
:1003B00088B3877888BBC298C198C09887B388678C
:1003C00087BBBA9AB89AB99A81E08A95F1F7C29A2E
:1003D000C49A85E0982F9A95F1F7C2988A95F1F71B
:1003E00080EB94E00197F1F788E260E00E949D01C4
:1003F000812F886060E00E949D01812F8C6060E009
:100400000E949D0180E460E00E949D01C0E6D0E072
:10041000899161E00E949D0180E0C03AD807C1F750
:1004200081E060E00E949D01DF91CF911F910895CE
:10043000CF93DF93EC0110C0853251F4219688816F
:100440008053883028F085E261E00E949D01888118
:1004500061E00E949D0121968881882369F7DF91E0
:10046000CF9108951F93CF93DF93EC01FC0184910A
:1004700014C0853261F42196FE011491812F8053BE
:10048000883028F085E261E00E949D01812F61E0C3
:100490000E949D012196FE018491882351F7DF91EE
:1004A000CF911F910895EF92FF920F931F93DF93C7
:1004B000CF9300D000D00F92CDB7DEB78C01F62ECF
:1004C00097FF08C08DE261E00E949D0110950195A3
:1004D0001F4F04C080E261E00E949D01FE01319641
:1004E00085E0DF011D928A95E9F7FE0135960DC082
:1004F000C8016AE070E00E94D4028083C8016AE00B
:1005000070E00E94D4028B0131970115110581F72B
:10051000BFEFFB1681F420E030E0AE014F5F5F4F8C
:1005200002C02F5F3F4FFA01E20FF31F8081882343
:10053000C1F3890108C08F2D992787FD909505E0AB
:1005400010E0081B190B7E010894E11CF11CE00E61
:10055000F11E09C0F70181917F01805D61E00E9479
:100560009D010F5F1F4F05301105A4F30F900F90F1
:100570000F900F900F90CF91DF911F910F91FF90EF
:10058000EF900895843178F4623031F0633031F0C7
:10059000613029F4806403C08C5E01C08C5A80688D
:1005A00060E00E949D01089597FB092E07260AD05E
:1005B00077FD04D00CD006D000201AF47095619518
:1005C0007F4F0895F6F7909581959F4F0895AA1B48
:1005D000BB1B51E107C0AA1FBB1FA617B70710F02E
:1005E000A61BB70B881F991F5A95A9F78095909560
:0A05F000BC01CD010895F894FFCF7F
:1005FA000000040E0400000000040E1F0E04000098
:10060A00040404041F0E04000A15110A0400000061
:10061A000A1F1F0E040000000C12120C000000003A
:10062A00040E1F0404040400010214080000000060
:00000001FF
