:100000000C943F000C9454000C9454000C94540035
:100010000C9454000C9454000C9454000C94540010
:100020000C9454000C9454000C9454000C94540000
:100030000C9454000C9454000C9454000C945400F0
:100040000C9454000C9454000C9454000C945400E0
:100050000C945400427920536167617200536D61C2
:100060007274205061726B696E6720537973746586
:100070006D0057454C434F4D4520544F000011240F
:100080001FBECFE5D4E0DEBFCDBF10E0A0E6B0E0FC
:10009000EAE3F4E002C005900D92A03AB107D9F767
:1000A0000E9456000C941B020C940000CF93DF9327
:1000B00080E00E94EB0084EF91E020E931E0F9015B
:1000C0003197F1F70197D9F7C0E9D1E082E790E0E5
:1000D0000E94520184EF91E0FE013197F1F7019700
:1000E000D9F781E060E00E94C3008DE590E00E94B6
:1000F000520184EF91E0FE013197F1F70197D9F7B2
:1001000081E060E00E94C30081E061E00E94E201C2
:1001100084E590E00E94520184EF91E0FE01319766
:10012000F1F70197D9F781E060E00E94C300CECFDC
:1001300087B3807F87BB969A939882E08A95F1F780
:1001400022E035E0C49A822F8A95F1F786B3829532
:10015000807F922F9A95F1F7C498932F9A95F1F793
:10016000C49A922F9A95F1F796B3922F9A95F1F738
:10017000C498932F9A95F1F787FDE4CF969887B3AB
:100180008F6087BB0895282F662311F4939801C0D0
:10019000939A82E08A95F1F7C49A88B3922F929548
:1001A0009F70807F982B98BB95E0892F8A95F1F7F7
:1001B000C498892F8A95F1F7C49A88B32F70807FED
:1001C000822B88BB892F8A95F1F7C4989A95F1F70D
:1001D0000E94980008951F93CF93DF93182F88EE05
:1001E00093E020E931E0F9013197F1F70197D9F770
:1001F00088B3807F88BBC4989698939887B38F60A4
:1002000087BBBC9A8B9A8E9A81E08A95F1F7C49A43
:10021000C19A85E0982F9A95F1F7C4988A95F1F7DD
:1002200080EB94E00197F1F788E260E00E94C30060
:10023000812F886060E00E94C300812F8C6060E0A5
:100240000E94C30080E460E00E94C300C0E6D0E0EA
:10025000899161E00E94C30080E0C03AD807C1F7ED
:1002600081E060E00E94C300DF91CF911F9108956B
:10027000CF93DF93EC0110C0853251F42196888131
:100280008053883028F085E261E00E94C3008881B5
:1002900061E00E94C30021968881882369F7DF917D
:1002A000CF9108951F93CF93DF93EC01FC018491CC
:1002B00014C0853261F42196FE011491812F805380
:1002C000883028F085E261E00E94C300812F61E060
:1002D0000E94C3002196FE018491882351F7DF918B
:1002E000CF911F910895EF92FF920F931F93DF9389
:1002F000CF9300D000D00F92CDB7DEB78C01F62E91
:1003000097FF08C08DE261E00E94C300109501953F
:100310001F4F04C080E261E00E94C300FE013196DD
:1003200085E0DF011D928A95E9F7FE0135960DC043
:10033000C8016AE070E00E94F4018083C8016AE0AD
:1003400070E00E94F4018B0131970115110581F7CE
:10035000BFEFFB1681F420E030E0AE014F5F5F4F4E
:1003600002C02F5F3F4FFA01E20FF31F8081882305
:10037000C1F3890108C08F2D992787FD909505E06D
:1003800010E0081B190B7E010894E11CF11CE00E23
:10039000F11E09C0F70181917F01805D61E00E943B
:1003A000C3000F5F1F4F05301105A4F30F900F908E
:1003B0000F900F900F90CF91DF911F910F91FF90B1
:1003C000EF900895843178F4623031F0633031F089
:1003D000613029F4806403C08C5E01C08C5A80684F
:1003E00060E00E94C300089597FB092E07260AD0FB
:1003F00077FD04D00CD006D000201AF470956195DA
:100400007F4F0895F6F7909581959F4F0895AA1B09
:10041000BB1B51E107C0AA1FBB1FA617B70710F0EF
:10042000A61BB70B881F991F5A95A9F78095909521
:0A043000BC01CD010895F894FFCF40
:10043A000000040E0400000000040E1F0E04000059
:10044A00040404041F0E04000A15110A0400000023
:10045A000A1F1F0E040000000C12120C00000000FC
:10046A00040E1F0404040400010214080000000022
:00000001FF
